:020000040000fa
:080000000002040000000000f2
:020000040000fa
:04000800fe020000f4
:020000040000fa
:04000c0040030000ad
:020000040000fa
:04001000a003000049
:020000040000fa
:040014001e030000c7
:020000040000fa
:040018006003000081
:020000040000fa
:04001c00800300005d
:020000040000fa
:04002000c003000019
:020000040000fa
:040024007206000060
:020000040000fa
:04002800720600005c
:020000040000fa
:04002c007206000058
:020000040000fa
:040030007206000054
:020000040000fa
:040034007206000050
:020000040000fa
:04003800720600004c
:020000040000fa
:04003c007206000048
:020000040000fa
:040040007206000044
:020000040000fa
:040044007206000040
:020000040000fa
:04004800ec030000c5
:020000040000fa
:04004c007206000038
:020000040000fa
:040050007206000034
:020000040000fa
:040054007206000030
:020000040000fa
:04005800720600002c
:020000040000fa
:04005c007206000028
:020000040000fa
:040060007206000024
:020000040000fa
:040064007206000020
:020000040000fa
:04006800720600001c
:020000040000fa
:04006c00220400006a
:020000040000fa
:040070007206000014
:020000040000fa
:040074007206000010
:020000040000fa
:04007800720600000c
:020000040000fa
:04007c007206000008
:020000040000fa
:040080007206000004
:020000040000fa
:040084007206000000
:020000040000fa
:0400880072060000fc
:020000040000fa
:04008c0072060000f8
:020000040000fa
:0400900072060000f4
:020000040000fa
:0400940072060000f0
:020000040000fa
:0400980072060000ec
:020000040000fa
:04009c0072060000e8
:020000040000fa
:0400a00072060000e4
:020000040000fa
:0400a40072060000e0
:020000040000fa
:0400a80072060000dc
:020000040000fa
:0400ac0072060000d8
:020000040000fa
:0400b00072060000d4
:020000040000fa
:0400b40072060000d0
:020000040000fa
:0400b80072060000cc
:020000040000fa
:0400bc0072060000c8
:020000040000fa
:0400c00072060000c4
:020000040000fa
:0400c40072060000c0
:020000040000fa
:0400c80072060000bc
:020000040000fa
:0400cc0072060000b8
:020000040000fa
:0400d00072060000b4
:020000040000fa
:0400d40072060000b0
:020000040000fa
:0400d80072060000ac
:020000040000fa
:0400dc0072060000a8
:020000040000fa
:0400e00072060000a4
:020000040000fa
:0400e40072060000a0
:020000040000fa
:0400e800720600009c
:020000040000fa
:0400ec007206000098
:020000040000fa
:0400f0007206000094
:020000040000fa
:0400f4007206000090
:020000040000fa
:0400f800720600008c
:020000040000fa
:0400fc007206000088
:020000040000fa
:040100007206000083
:020000040000fa
:04010400720600007f
:020000040000fa
:04010800720600007b
:020000040000fa
:04010c007206000077
:020000040000fa
:040110007206000073
:020000040000fa
:04011400720600006f
:020000040000fa
:04011800720600006b
:020000040000fa
:04011c007206000067
:020000040000fa
:040120007206000063
:020000040000fa
:04012400720600005f
:020000040000fa
:04012800720600005b
:020000040000fa
:04012c007206000057
:020000040000fa
:040130007206000053
:020000040000fa
:04013400720600004f
:020000040000fa
:04013800720600004b
:020000040000fa
:04013c007206000047
:020000040000fa
:040140007206000043
:020000040000fa
:04014400720600003f
:020000040000fa
:04014800720600003b
:020000040000fa
:04014c007206000037
:020000040000fa
:040150007206000033
:020000040000fa
:04015400720600002f
:020000040000fa
:04015800720600002b
:020000040000fa
:04015c007206000027
:020000040000fa
:040160007206000023
:020000040000fa
:04016400720600001f
:020000040000fa
:04016800720600001b
:020000040000fa
:04016c007206000017
:020000040000fa
:040170007206000013
:020000040000fa
:04017400720600000f
:020000040000fa
:04017800720600000b
:020000040000fa
:04017c007206000007
:020000040000fa
:040180007206000003
:020000040000fa
:0401840072060000ff
:020000040000fa
:0401880072060000fb
:020000040000fa
:04018c0072060000f7
:020000040000fa
:0401900072060000f3
:020000040000fa
:0401940072060000ef
:020000040000fa
:0401980072060000eb
:020000040000fa
:04019c0072060000e7
:020000040000fa
:0401a00072060000e3
:020000040000fa
:0401a40072060000df
:020000040000fa
:0401a80072060000db
:020000040000fa
:0401ac0072060000d7
:020000040000fa
:0401b00072060000d3
:020000040000fa
:0401b40072060000cf
:020000040000fa
:0401b80072060000cb
:020000040000fa
:0401bc0072060000c7
:020000040000fa
:0401c00072060000c3
:020000040000fa
:0401c40072060000bf
:020000040000fa
:0401c80072060000bb
:020000040000fa
:0401cc0072060000b7
:020000040000fa
:0401d00072060000b3
:020000040000fa
:0401d40072060000af
:020000040000fa
:0401d80072060000ab
:020000040000fa
:0401dc0072060000a7
:020000040000fa
:0401e00072060000a3
:020000040000fa
:0401e400720600009f
:020000040000fa
:0401e800720600009b
:020000040000fa
:0401ec007206000097
:020000040000fa
:0401f0007206000093
:020000040000fa
:0401f400720600008f
:020000040000fa
:0401f800720600008b
:020000040000fa
:0401fc007206000087
:020000040000fa
:040200007206000082
:020000040000fa
:04020400720600007e
:020000040000fa
:04020800720600007a
:020000040000fa
:04020c007206000076
:020000040000fa
:040210007206000072
:020000040000fa
:04021400720600006e
:020000040000fa
:04021800720600006a
:020000040000fa
:04021c007206000066
:020000040000fa
:040220007206000062
:020000040000fa
:04022400720600005e
:020000040000fa
:04022800720600005a
:020000040000fa
:04022c007206000056
:020000040000fa
:040230007206000052
:020000040000fa
:04023400720600004e
:020000040000fa
:04023800720600004a
:020000040000fa
:04023c007206000046
:020000040000fa
:040240007206000042
:020000040000fa
:04024400720600003e
:020000040000fa
:04024800720600003a
:020000040000fa
:04024c007206000036
:020000040000fa
:040250007206000032
:020000040000fa
:04025400720600002e
:020000040000fa
:04025800720600002a
:020000040000fa
:04025c007206000026
:020000040000fa
:040260007206000022
:020000040000fa
:04026400720600001e
:020000040000fa
:04026800720600001a
:020000040000fa
:04026c007206000016
:020000040000fa
:040270007206000012
:020000040000fa
:04027400720600000e
:020000040000fa
:04027800720600000a
:020000040000fa
:04027c007206000006
:020000040000fa
:040280007206000002
:020000040000fa
:100400000f0521000eff2c000e01880000000000e7
:10041000000020000000e000020032000001200087
:100420002002880014000700300207000000e000ee
:1004300003003a0000ba200001002000020037004b
:100440000000200001002000810f70000100320038
:100450000f000700000020000000e0000200320052
:100460000000020000000000fc0b02000000000081
:100470000040da000000fe00200020000000e00044
:1004800002003200100020009001880000000600e9
:10049000a1028800800478000000eb001f003700f4
:1004a000e284440054a0b4009905ba00e2844400f8
:1004b00054a0b4009906ba00e284440054a0b400e9
:1004c0000006eb00476fde00fd07b200ae018800ba
:1004d000636ce10003003a000ad801000000eb0061
:1004e0000e003700606ce10008003a00004deb00a0
:1004f0000a05e800020039003420ec000af0a000f0
:100500008b05e900f9ff3e00040037006168e10057
:10051000010032000086eb000b00070019c7ba008b
:100520000e04e0001905ba0003003a000a00e000da
:10053000dbff3a0000000600fe07b200ae028800b2
:100540008a047800f5ff37000cd0a300e20f4d00bd
:100550001c00390089027800354dba000a05e80010
:10056000020039003420ec000af0a0008b05e900fd
:100570000f003200254dba000a05e80002003900dc
:100580003420ec000af0a0008b05e90008003200de
:100590000c00e0000600320015cdba000a05e800a4
:1005a000020039003420ec000af0a0008b05e900bd
:1005b0008984e80054a0b4000b00e000e2ff3a0098
:1005c000000006009902ba00055d78008b05e9007d
:1005d000f7ff3200c82ade00055d78008b05e900d0
:1005e000f3ff32000c00e000f1ff320019ddba0029
:1005f000eeff3700020a0400000000003600f80099
:10060000809fbe00829fbe00849fbe00869fbe006a
:100610000000fa00c028a9000000eb006a040700ef
:100620000080fa004f03be004f02be004f01be0023
:100630004f00be003600f900004006003600f8000a
:10064000809fbe00829fbe00849fbe00869fbe002a
:100650000000fa0061040700c048a9001000200053
:10066000590407000080fa004f03be004f02be008d
:100670004f01be004f00be003600f90000400600ea
:100680003600f800809fbe00829fbe00849fbe009f
:10069000869fbe000000fa00c068a900200020006c
:1006a000490407000080fa004f03be004f02be005d
:1006b0004f01be004f00be003600f90000400600aa
:1006c0003600f800809fbe00829fbe00849fbe005f
:1006d000869fbe000000fa00c088a90030002000fc
:1006e000390407000080fa004f03be004f02be002d
:1006f0004f01be004f00be003600f900004006006a
:100700003600f800809fbe00829fbe00849fbe001e
:10071000869fbe000000fa00c0a8a900400020008b
:10072000290407000080fa004f03be004f02be00fc
:100730004f01be004f00be003600f9000040060029
:100740003600f800809fbe00829fbe00849fbe00de
:10075000869fbe000000fa00c608a90070002000b5
:10076000190407000080fa004f03be004f02be00cc
:100770004f01be004f00be003600f90000400600e9
:100780003600f800809fbe00829fbe00849fbe009e
:10079000869fbe000000fa00214680000002200073
:1007a000008060000000e00003003200c4a8a9003f
:1007b00090002000040407002046800070006000c4
:1007c0000000e00003003200c488a900a00020005f
:1007d000fd030700ffff37003600f800809fbe00d2
:1007e000829fbe00849fbe00869fbe000000fa006c
:1007f000d08080000000e00002003200d080800045
:1008000000000100f0042100104078008040e80062
:10081000f004210001487800e004210011c0b30079
:10082000014878000108a9000080fa004f03be00cb
:100830004f02be004f01be004f00be003600f9005f
:10084000004006003600f800809fbe00829fbe0078
:10085000849fbe00869fbe000000fa000228a90007
:100860004110800000082000008060000000e000cf
:100870000800320008e2a9000830ef007080800014
:10088000200090008000eb00010878000e30ef009f
:100890000d013700408080008000eb00b200200096
:1008a00003002000820f5000838f5800fc003e00a0
:1008b000000601000b0037003900370075003700d3
:1008c0009c003700f3003700c8003700d90037001c
:1008d000f0003700db003700f1003700340037004c
:1008e00050003700000021002000900062006000ee
:1008f0000000e000f3003a0000002100100090002a
:1009000070808800000021001000900010407800e6
:100910000af0b700000021001000900010009000c5
:10092000608088000000210010009000e600400078
:1009300000002100110098000000210090009000ac
:1009400020042100808f500003003a0000002100a5
:10095000c10321001100980000002100a0009000b8
:100960000100a100210098000000210090009000eb
:100970000000210010007800808f500004003a0031
:1009800000002100a00090000110a00021009800ac
:100990000602a8002000200040808800ca0037001e
:1009a0000622a8002000200040808800c6003700f2
:1009b0004110800000002800008060000000e0007e
:1009c0000800320000002100604090008040e800f4
:1009d000000021006140980040002000f70007005f
:1009e000b9003700808080008000d100f00f200027
:1009f000008060001010880080808000610060002e
:100a0000004078000004e00003003200b000200045
:100a100040808800ac003700300020004080880013
:100a2000a90037004110800000002800008060000d
:100a30000000e0000800320000002100604090004b
:100a40008040e80000002100614098004000200044
:100a5000da0007009c0037000622a8008080800092
:100a60004800de00e6006000000f2000010070007a
:100a700080808800808080000000a0008080880046
:100a800010c0b30012f0b7002000200040808800a2
:100a90008d00370012d0bf00e14f50000a00320035
:100aa0006080800010007800808088006080800076
:100ab00020009000a080880060808000204090008e
:100ac00016f0b700010037001270ef00818080003f
:100ad000f00f2000808f50000900360080808000d9
:100ae0004800de00e6006000000f200001007000fa
:100af00010108800a000200040808800720037009d
:100b0000808080001010880080808000610060007c
:100b1000004078000004e000030032005000200094
:100b20004080880068003700300020004080880046
:100b30006500370041108000000028000080600040
:100b40000000e00009003200000021006040900039
:100b50008040e800000021006140980009e2a900ff
:100b600050002000950007005700370016d0bf0046
:100b70008080fb008100e900cf08de008140780022
:100b80000040e90016f0b7000104e0001000320058
:100b90006080800066004000608088000ad0bf004e
:100ba0000040e9000af0b7000ad0bf000004e000ee
:100bb00003003a00200020008000070042003700b8
:100bc0000622a80020002000408088003e00370058
:100bd000a0808000904078008180fb001110880088
:100be0000000e800a0808800370037004110800036
:100bf00000002800008060000000e00009003200d2
:100c000000002100604090008040e80000002100ca
:100c100061409800400020006800070009e2a90038
:100c2000290037000662a80080002000408088006c
:100c30002500370080002000408088000662a80060
:100c400021003700a08080000110800081407800e2
:100c5000014878000000e800a080880016d0bf009e
:100c60000040e90016f0b70016d0bf000004e00015
:100c70000400320006a2a900600020004080880025
:100c80000200370006a2a8003b0007000682a80069
:100c90000d00370020002000480007000a00370040
:100ca00000002100604090008040e800000021002a
:100cb0006140980060002000400007000000000034
:100cc00001003700000000000080fa004f03be0062
:100cd0004f02be004f01be004f00be003600f900bb
:100ce000004006000040da000000fe0000000500a1
:020000040000fa
:100cf0000000fa0000002100c1032100110098004b
:100d000000002100c103210001087800000021003b
:100d1000a00090000110a000210098000000210018
:100d2000a00090000100a100210098000000210017
:100d30008040eb0061409800c00e20002010880029
:100d400000002800301088000822ef000228a900c7
:100d50002228a8000080fa00000006000200fa0025
:100d600000002100e0409000014f78001e40780014
:100d70000080fa00000006000000fa006080800099
:100d800066004000608088000ad0bf000040e90093
:100d90000af0b7000ad0bf000004e00003003a00e8
:100da0004000200040808800020037001000200032
:100db000408088000080fa00000006000200fa006f
:100dc000000f78000642a80070808000200090008c
:100dd0000000e000030032007080800020009000de
:100de0001e0878000830ef000080fa0000000600be
:100df0000800fa00000f78002147980022079800a9
:100e0000330798000000210020009000610060007e
:100e10000000e0000a003a00ae0190002e41900070
:100e20009e00780080042100770007003e019000ba
:100e30008104210010c0b3001f0007000300370029
:100e40003e0090008000eb00010878000080fa006e
:100e5000000006000800fa00000f78002147980003
:100e6000220798003307980000002100200090001e
:100e7000610060000000e0000a003a00ae0190004e
:100e80002e4190009e0078002004210046000700bb
:100e90003e0190002104210010c0b30006000700ad
:100ea000030037003e0090008000eb00010878004e
:100eb0000080fa00000006000600fa00004f7800eb
:100ec00011079800220798000000210020009000e0
:100ed000610060000000e0002e003a002e0090004b
:100ee00011002000010878000000210010007800a7
:100ef0009e00900011009800000021001000780072
:100f00001e4878000000210010007800ae0090001c
:100f1000210098000000210010007800e600400049
:100f200000002100010878000000210090007800f6
:100f300020042100808f500003003a0000002100af
:100f4000c10321000108780000002100a0009000ea
:100f50000110a100210098000000210090009000e5
:100f60000000210010007800808f500004003a003b
:100f700000002100a00090000100a00021009800c6
:100f8000408080000000e00005003a000228a80030
:100f9000030037002e0090008000eb00010878006d
:100fa0000080fa00000006000800fa00000f780038
:100fb0001107980042479800330798003e009000c0
:100fc00000004000800078001e00780001087800d2
:100fd0001e00780010007800800078000100a0005a
:100fe0001e007800010878001e007800ce409000b6
:100ff000214098001e0078009e009000210098007b
:101000000080fa00000006000800fa00000f7800d7
:101010001107980042479800330798003e0090005f
:1010200000004000800078001e0078000108780071
:101030001e007800ce409000214098001e007800ed
:101040009e009000210098000080fa000000060039
:101050000000fa0000002100200090006200600003
:1010600000f0a7000000ea000000ea004f00de00e8
:10107000004078000080fa00000006000000fa003e
:1010800000002100200090006100600000f0a70037
:101090000000ea000000ea004f00de000040780097
:1010a0000080fa00000006000000fa00003a80000c
:1010b0000080fa00000006000200fa00faff0700b4
:1010c000000f78001e007800240007000004e000f4
:1010d0000200320000002800710007001e007800a6
:1010e0002a0007000004e000020032000000240093
:1010f0006b0007001e007800320007000004e000cb
:101100000200320000202000650007001e00780069
:101110003a0007000004e00002003200000820004e
:101120005f0007001e007800420007000004e00096
:101130000200320000042000590007001e00780061
:101140004a0007000004e000020032000001200015
:10115000530007000080fa00000006000400fa00b7
:10116000100798000040eb00004f78001e00900030
:101170000000e00002003d0010c0b300004f780006
:101180001e4078000080fa00000006000400fa000b
:10119000100798000040eb00004f78009e00900080
:1011a00000002400008060000000e0000200320027
:1011b00010c0b300004f78001e4078000080fa0095
:1011c000000006000400fa00100798000040eb0041
:1011d000004f78009e0090000020200000806000fa
:1011e0000000e0000200320010c0b300004f7800a1
:1011f0001e4078000080fa00000006000400fa009b
:10120000100798000040eb00004f78009e0090000f
:1012100000082000008060000000e00002003200b2
:1012200010c0b300004f78001e4078000080fa0024
:10123000000006000400fa00100798000040eb00d0
:10124000004f78009e0090000004200000806000a5
:101250000000e0000200320010c0b300004f780030
:101260001e4078000080fa00000006000400fa002a
:10127000100798000040eb00004f78001e0090001f
:10128000700060000000e0000200320010c0b300f7
:10129000004f78001e4078000080fa000000060031
:1012a0000200fa00000f78009e80ea00003a8000f9
:1012b00000806000003a88000080fa00000006000c
:1012c0000000fa004027ef000080fa00000006004e
:1012d0000000fa000a21ef000e21ef000621ef00c6
:1012e0000c21ef008000280080088800d08080005a
:1012f0000000e00002003a0020a0200044000700a7
:101300000108a9002108a800e00421008040eb00aa
:10131000014878000080fa00000006000400fa008e
:10132000008fbe001e007800600888001e00780054
:101330009e0090004008de000000780070088800e1
:101340000080fa00000006000400fa000080eb00b4
:101350008080eb00008fbe00700880008000eb00f2
:10136000c001dd0002002000600880008000eb006a
:10137000001f7100019771001e0078009e00900010
:101380000080fa00000006000400fa00008fbe0092
:101390001e0078009e0090004008de0000007800eb
:1013a000400888001e007800300888000080fa009d
:1013b000000006000800fa000080eb008080eb00cf
:1013c000008fbe003108800021079800410880008e
:1013d000310798003e0090008000eb00c001dd0066
:1013e000020020002e0090008000eb00001f710022
:1013f000019771001e0078009e0090000080fa00a6
:10140000000006000000fa000080fa00000006005c
:101410000200fa00000f78002108a9009e00780061
:10142000d18088002108a8000080fa000000060092
:101430000000fa00e00421008040eb000148780041
:101440002108a80011e1a8000080fa0000000600b1
:101450000000fa0011e1a9002108a9000080fa00ab
:10146000000006000200fa00e0042100104f78009e
:101470001e4078000004e00003003200e004210078
:101480008040eb00014878001e4078000080fa00a0
:10149000000006000000fa00f0042100104078006f
:1014a0000080fb000080fa00000006000000fa0047
:1014b000f00421008040eb00014878000080fa0031
:1014c000000006000200fa00000f78000300370059
:1014d00090d9250001002000ad0007001e00780013
:1014e00000f0a7000000ea000000ea004f00de0064
:1014f000004078001e0fe9000004e000f4ff3a000d
:101500000080fa00000006000200fa00000f7800d8
:1015100005003700e02f2000010020009c0007009c
:1015200001fe2f001e8f40001e007800ff0f5000ac
:10153000f8ff3e000300370070012000010020008a
:10154000930007001e00780000f0a7000000ea00ea
:101550000000ea004f00de00004078001e0fe900a6
:101560000004e000f4ff3a000080fa0000000600ea
:101570000000fa0000042300203a88004827ef000a
:101580004e27ef0020032000303a88006027ef004c
:101590006227ef006427ef006627ef006a27ef005d
:1015a0006c27ef001200200080072000a109200016
:1015b000337420008049780081497800824978009e
:1015c0001200200060042000710520002374200018
:1015d0008049780081497800824978000000000045
:1015e000103a8000610060000000e000fcff3a005b
:1015f00000000000113a800000022000008060001e
:101600000000e000fbff32000080fa00000006004e
:101610000000fa00042eef00142eef00242eef003d
:1016200070792000007088000080eb0080708800d6
:10163000f03f2000007188000c2eef001c2eef0000
:101640002c2eef000a2eef001a2eef002a2eef00ac
:10165000062eef00162eef00262eef007021200040
:101660007070880030382000f0708800f000200092
:10167000707188000080fa00000006000200fa0085
:10168000000f780021028000200f20000080600001
:101690001e007000200288000080fa000000060092
:1016a0000000fa00c3e8a8000000000000000000ed
:1016b0000080fa00000006000000fa00d4ff0700d6
:1016c00008000700aaff070089fd070000ff0700c8
:1016d000f3ff070000022000e8ff07000080fa0087
:1016e000000006000000fa0041428000f0f82f00e0
:1016f000008060000040a00040428800414280001d
:1017000080ff2f00008060000000a00040428800a1
:1017100011428000f0ff28000080600000c0a0009f
:10172000104288002142800080ff2f00008060006e
:101730000000a000204288000080fa00000006009f
:020000040000fa
:101740001c100000200000008000000018100000a5
:101750000200000082000000ffff00004e100000a9
:1017600002000000800000001a10000002000000cb
:10177000800000003c10000012000000800000000b
:1017800000100000180000008000000000000000b1
:020000040000fa
:10179000f03fb1000180b10006003500ee03090002
:1017a00000000000403fb1000180b100fbff3d00a0
:1017b0001000b000203fb00002003500008009009a
:0817c00000000000000006001b
:020000040000fa
:1017c8000200fa00000f78009e007800c1808800af
:1017d800ffff37000000fa00c001210080077800f1
:1017e80040032100000188000080fa000000060084
:0c17f8000000fa00aeff0700ffff370002
:020000040000fa
:02000004000af0
:04afe000cfff00009f
:020000040000fa
:02000004000af0
:04afe400ffff00006b
:020000040000fa
:02000004000af0
:04afe8007fff0000e7
:020000040000fa
:02000004000af0
:04afec007fff0000e3
:020000040000fa
:02000004000af0
:04aff00078ff0000e6
:020000040000fa
:02000004000af0
:04aff400ffff00005b
:00000001FF
